:100000000C9438000C9442000C9442000C94420072
:100010000C9442000C9442000C9442000C94420058
:100020000C9442000C9442000C9442000C94420048
:100030000C9442000C9442000C9442000C94420038
:100040000C9442000C9442000C9442000C94420028
:100050000C9442000C9442000C9442000C94420018
:100060000C9442000C9442000C9442000C94420008
:1000700011241FBECFEFD4E0DEBFCDBF0E944400ED
:100080000C9458000C9400008FE190E00E944C000A
:1000900081E60E945400FCCF90BD89B988E98AB9F5
:1000A00078948EE880BD08955D9BFECF8CB908954D
:0400B000F894FFCFF2
:00000001FF
