:100000000C9438000C9455000C9455000C94550039
:100010000C9455000C9455000C9455000C9455000C
:100020000C9455000C9455000C9455000C945500FC
:100030000C9455000C9455000C9455000C945500EC
:100040000C9455000C9455000C9455000C945500DC
:100050000C9455000C9455000C9455000C945500CC
:100060000C9455000C9455000C9455000C945500BC
:1000700011241FBECFEFD4E0DEBFCDBF12E0A0E061
:10008000B1E0EAE1F0E102C005900D92A63EB107B1
:10009000D9F722E0A6EEB2E001C01D92A23FB2075E
:1000A000E1F70E9457000C940B080C94000000D05C
:1000B00000D0CDB7DEB78FE190E00E9478000E94BB
:1000C0009B000E9489000E946101CE0101960E945E
:1000D0001E02CE0101960E942C0280E090EF019753
:1000E000F1F7F3CF5D9BFECF8CB980E090E00895EF
:1000F00090BD89B988E18AB98EE880BD60E070E082
:1001000082E790E00E940C0308955F9BFECF8CB1C4
:1001100008958C9A109289001092880081E090E0F6
:10012000909387008093860080E480938B0089E021
:1001300080938A00089580E885BF80E280BF08959B
:10014000CF92DF92EF92FF920F931F93CF93DF93A3
:1001500082E191E09F938F930E9456038DE391E09B
:100160000E946C030E94FC02C82ED92E0E9401033B
:100170000F900F9000E010E0C0E0D0E00F2EF3E50C
:10018000EF2EF1E0FF2EF02D06C00F5F1F4F01157F
:1001900098E01907F9F00E94FC02282F392FF80186
:1001A000F85E80834081481781F333273F932F9374
:1001B0001F924F931F930F93FF92EF920E9456034B
:1001C00021968DB79EB708960FB6F8949EBF0FBEC6
:1001D0008DBFDBCF8C2D9D2D0E940103C12CD12C16
:1001E00000E010E00F2EFCE8EF2EF1E0FF2EF02DE6
:1001F00007C09FEFC91AD90AC11488E0D806F9F0E0
:100200000E94FC02282F392FF601F85E80818217A8
:1002100081F333273F932F931F928F93DF92CF92D7
:10022000FF92EF920E9456030F5F1F4F8DB79EB74C
:1002300008960FB6F8949EBF0FBE8DBFDACF1F93FE
:100240000F93DF93CF9389EC91E09F938F930E945C
:1002500056030F900F900F900F900F900F90DF911B
:10026000CF911F910F91FF90EF90DF90CF90089565
:10027000E82FF92F8081681708F460838181861741
:1002800008F4618308956717B0F46817B0F487170E
:10029000B0F4482F461B550B9A0144E6429FC0011B
:1002A000439F900D1124272F261B330BB9010E9469
:1002B0009C02862F089580E0089580E0089584E6EA
:1002C0000895E0E0F4E11082908180819093E7024C
:1002D0008093E602E6E0F1E090839183E4E0F1E0D0
:1002E00080838183E2E0F1E08FEF80831182E0E0A0
:1002F000F1E0808311820895CF93C62F682F86E0A6
:1003000091E00E9438016C2F84E091E00E94380156
:10031000CF910895CF93C62F682F82E091E00E947D
:1003200038016C2F80E091E00E943801CF91089550
:100330009091E702891B990B2091E602462F421B00
:10034000550B9A0161E08C3F5FEF95070CF060E080
:1003500071E005970CF470E081E02D3F9FEF3907C5
:100360000CF480E091E0243031050CF090E0089529
:100370000F931F93CF93DF93C82FD62F6091060161
:10038000709107010E944301082F60910401709150
:1003900005018D2F0E944301182F6D2F8C2F0E9475
:1003A0007C01802F912FDF91CF911F910F910895A4
:1003B0000F931F93CF93DF93C82FD62F6091020125
:1003C000709103010E944301082F60910001709118
:1003D00001018D2F0E944301182F6D2F8C2F0E9439
:1003E0008A01802F912FDF91CF911F910F91089556
:1003F0000E94B8011F929F931F928F9382E292E016
:100400009F938F930E9456030F900F900F900F9021
:100410000F900F9008950E94D8011F929F931F92F2
:100420008F9387E492E09F938F930E9456030F90DF
:100430000F900F900F900F900F900895E82FF92FC5
:10044000A0E0B4E11C928C9180838C9181838C918B
:1004500083838C9182830895FF920F931F93CF9390
:10046000DF93C82FD92F8B811F928F938A811F9280
:100470008F9389811F928F9388811F928F9389E632
:1004800092E09F938F930E945603698188810E9416
:10049000B801192F698188810E94B8011F921F93AA
:1004A0001F928F9382E292E09F938F930E94560354
:1004B0006B818A810E94D801192F6B818A810E94E9
:1004C000D8011F921F931F928F9387E492E09F930E
:1004D0008F930E9456031981C881612F8C2F0E942F
:1004E0009801F92E612F8C2F0E949801082F612FFF
:1004F0008C2F0E949801D72F612F8C2F0E9498017A
:100500001F92FF921F920F931F92DF931F926F9380
:100510008FEA92E09F938F930E9456038DB79EB708
:1005200080960FB6F8949EBF0FBE8DBFDF91CF911E
:100530001F910F91FF900895AA1BBB1B51E107C0AB
:10054000AA1FBB1FA617B70710F0A61BB70B881F63
:10055000991F5A95A9F780959095BC01CD010895F2
:100560008F929F92AF92BF92CF92DF92EF92FF92C3
:10057000CF93DF93EC01688179818A819B8161153A
:1005800071058105910521F464E279ED8BE597E031
:100590002DE133EF41E050E00E94710749015A011B
:1005A0009B01AC01A7EAB1E40E9490076B017C01BA
:1005B000ACEEB4EFA50194010E949E07DC01CB01D3
:1005C0008C0D9D1DAE1DBF1DB7FF03C00197A10976
:1005D000B04888839983AA83BB839F77DF91CF91AB
:1005E000FF90EF90DF90CF90BF90AF909F908F9053
:1005F00008950E94B002089588E091E00E94B00240
:100600000895A0E0B0E08093080190930901A093C1
:100610000A01B0930B0108950F931F93CF93DF93BB
:10062000EC018B01892B51F4672B41F4E0E0F0E001
:10063000CF01DF91CF911F910F9108956EE070E08F
:1006400081E090E00E948305FC01892B79F380E82A
:1006500083830115110571F01387028781E8838375
:100660008091E8029091E902892B21F4F093E9024C
:10067000E093E8022097E1F2D187C087838182600E
:1006800083838091EA029091EB02892B89F6F093A3
:10069000EB02E093EA028091EC029091ED02892B4B
:1006A00039F6F093ED02E093EC02C2CFA0E0B0E0A7
:1006B000ECE5F3E00C94B307AE014B5F5F4FFA013A
:1006C00061917191AF018091EA029091EB020E94D9
:1006D0009803E2E00C94CF070F931F93CF93DF931F
:1006E000E091EA02F091EB02238100E010E021FDAD
:1006F0000EC00FEF1FEFC801DF91CF911F910F9137
:1007000008950995892B11F00FEF1FEFCE01EC0131
:1007100089916091EA027091EB02DB011896ED91EC
:10072000FC918111EECF8AE00995892B21F3E1CF6D
:10073000ABE0B0E0EEE9F3E00C94A6076C017B01BE
:100740008A01FC0117821682838181FFD9C19AE058
:10075000592EF6012381F70123FD859123FF819115
:100760007F01811509F41FC1853239F423FD95916C
:1007700023FF91917F01953229F4B60190E00E9408
:10078000E306E7CF30E0912C612C712CF0E27F166C
:1007900040F59B32D9F058F49032D1F09332F1F019
:1007A0009E3299F576FCFFC0689476F806C09D32BB
:1007B00091F09033C1F4689470F8F70123FD95919E
:1007C00023FF91917F019111E1CF29C0689471F8C5
:1007D000689472F8F2CF689473F8EFCF689474F865
:1007E000ECCF77FC1CC080ED890F8A30C8F676FE0E
:1007F00005C0959C800D1124982EDFCF659C800D3F
:100800001124682E689475F8D8CF9C3619F4689432
:1008100077F8D3CF9C3409F44BC0983671F2892F06
:100820008F7D8554833008F445C0933609F466C043
:10083000933709F469C0933509F475C0943619F0FB
:10084000993609F09FC0F80177FE95C061917191CA
:10085000819191918F01272D2F76822E97FF09C0CC
:1008600090958095709561957F4F8F4F9F4F6894BD
:1008700087F82AE030E0AE014F5F5F4F5A010E94D7
:1008800013078A19A82E86FEC4C0882D8E7FA9144E
:1008900008F0BEC084FE11C182FC05C1F82DFE7EA9
:1008A0008F2EB92C882D8678811509F4BFC000C120
:1008B00031E083CF3115F9F0085F1F4F8FE3898353
:1008C00088248394912CAE014F5F5F4F5A01E894C6
:1008D00077F873FC03C086149104B0F1811491047D
:1008E000D1F5611409F435CFB60180E290E00E94A1
:1008F000E3066A94F6CF0C5F1F4FE0CFF8018081CA
:1009000089830E5F1F4FDCCFF801A190B1908F015A
:10091000692D70E076FC02C06FEF7FEFC5010E9489
:10092000D8064C01D4CFF801A190B1908F01692D68
:1009300070E076FC02C06FEF7FEFC5010E94C60633
:100940004C01689477F8C5CFB60180E290E00E9430
:10095000E3066A94C0CFF50177FC859177FE81911B
:100960005F01B60190E00E94E30661106A94F1E035
:100970008F1A9108B3CF61917191072E000C880BEB
:10098000990B68CF872CE89484F82AE030E09537FB
:1009900039F1572D597F852E903799F058F49835B5
:1009A000A9F09F36D9F0F601868197812B96EFE06A
:1009B0000C94C2079837B9F774FC05C020E130E009
:1009C0000FC0689484F8689482F8F8CF74FE03C06E
:1009D000872D8660882E20E132E002C028E030E0DA
:1009E000F80187FE10C061917191819191918F0101
:1009F000FE0131965F01AF010E9413078A19A82EEC
:100A0000E89487F840CF6191719180E090E0EFCF5A
:100A1000882EBA2C84FE46CFFE01EA0DF11D80819E
:100A2000803309F043C0282D297E822E83FC0EC01E
:100A300080FE4FC09A2CB61418F4960C9B18B62C56
:100A4000862D8B196B1408F480E0B80EB61408F0EC
:100A500042C06B1884FE41C0B60180E390E00E9462
:100A6000E30682FE09C088E590E081FC02C088E7C9
:100A700090E0B6010E94E306A914D8F1AA94B12C23
:100A80004FEFA41AB40ACE0101964C01A80EB91E6C
:100A9000F50182915F01B60190E00E94E3068A149D
:100AA0009B04B1F71ECFB92C882EB6CF82FC02C0B2
:100AB000B394BCCFB394B394B9CFB92C882EF2CEF3
:100AC000B60180E290E00E94E30673947614C0F3CE
:100AD000B7CF7B2CFBCF612CBDCF882D86788115BD
:100AE00059F280E281FC8BE287FC8DE2B60190E056
:100AF000C1CFB60180E390E00E94E3069A94BCCF98
:100B00008FEF9FEF53CF0F931F93CF93DF93869F6A
:100B10008001879F100D969F100D1124C8010E941F
:100B20009F05EC01009729F0A80160E070E00E94A9
:100B3000D106CE01DF91CF911F910F9108950F93B0
:100B40001F93CF93DF939C01029710F422E030E0D3
:100B5000E091EE02F091EF0280E090E0A0E0B0E0E2
:100B6000309791F4009709F448C0821B930B8430AE
:100B70009105D0F58A819B816115710581F1FB0199
:100B800093838283FE0111C04081518102811381D0
:100B900042175307D8F04217530799F4109761F0A2
:100BA00012960C93129713961C933296CF01DF91F5
:100BB000CF911F910F9108950093EE021093EF02D1
:100BC000F4CF009751F04817590738F0AC01DB011A
:100BD000CA01BD01DF01F801C3CFEF01F9CF909346
:100BE000EF028093EE02CECFFE01E80FF91F2193B2
:100BF0003193029799838883D9CF4091F002509125
:100C0000F1024115510541F440910E0150910F013F
:100C10005093F1024093F00280910C0190910D01EC
:100C2000009741F48DB79EB760911001709111014A
:100C3000861B970B4817590708F0B8CF841B950BF4
:100C40008217930708F4B2CFB9016E5F7F4F861702
:100C5000970708F4ABCF640F751F7093F102609390
:100C6000F002FA0121933193A1CFCF93DF939C013E
:100C70000097E9F0FC01329713821282C091EE02D4
:100C8000D091EF02DE0180E090E02097A1F4808116
:100C90009181280F391F8091F0029091F102821703
:100CA000930709F068C0F093F102E093F002DF913E
:100CB000CF910895DA01AE17BF0708F042C012962F
:100CC0004D915C911397CD014115510599F7DC01C8
:100CD0001396FC93EE9312974D915D919D01240F15
:100CE000351FE217F30781F4208131812E5F3F4FDA
:100CF000240F351FDC0111963C932E932281338102
:100D000013963C932E931297E0E0F0E08A819B814A
:100D10000097B1F5DE018D919D918A0F9B1F209167
:100D2000F0023091F1022817390709F6309759F58A
:100D30001092EF021092EE02D093F102C093F002F3
:100D4000B6CFB383A28340815181240F351FA217F0
:100D5000B30771F44E5F5F4F2D913C911197240FB3
:100D6000351F3183208312962D913C91338322834A
:100D7000009709F0ACCFF093EF02E093EE0297CF2B
:100D8000FE01EC01C3CF13821282D6CFFC01059085
:100D9000615070400110D8F7809590958E0F9F1F7D
:100DA0000895DC0101C06D9341505040E0F7089573
:100DB000FC016150704001900110D8F7809590952A
:100DC0008E0F9F1F08950F931F93CF93DF93182FBC
:100DD000092FEB018B8181FD09C01FEF0FEF812FE0
:100DE000902FDF91CF911F910F91089582FF14C032
:100DF0002E813F818C819D81281739073CF4E88141
:100E0000F981CF0101969983888310838E819F8118
:100E100001969F838E83E3CFE885F985812F09951D
:100E2000892BA1F3DACFFA01AA27283051F120311A
:100E300081F1E8946F936E7F6E5F7F4F8F4F9F4F6E
:100E4000AF4FB1E03ED0B4E03CD0670F781F891FB0
:100E50009A1FA11D680F791F8A1F911DA11D6A0F7E
:100E6000711D811D911DA11D20D009F468943F9131
:100E70002AE0269F11243019305D3193DEF6CF0130
:100E80000895462F4770405D4193B3E00FD0C9F7F6
:100E9000F6CF462F4F70405D4A3318F0495D31FD63
:100EA0004052419302D0A9F7EACFB4E0A6959795B6
:100EB000879577956795BA95C9F70097610571058C
:100EC00008959B01AC010A2E0694579547953795D6
:100ED0002795BA95C9F7620F731F841F951FA01D30
:100EE0000895052E97FB1EF400940E94880757FD75
:100EF00007D00E94DA0707FC03D04EF40C94880751
:100F000050954095309521953F4F4F4F5F4F089535
:100F100090958095709561957F4F8F4F9F4F089565
:100F20000E94FC07A59F900DB49F900DA49F800D7B
:100F3000911D11240895B7FF0C9490070E9490070B
:100F4000821B930B08952F923F924F925F926F9264
:100F50007F928F929F92AF92BF92CF92DF92EF9249
:100F6000FF920F931F93CF93DF93CDB7DEB7CA1BCA
:100F7000DB0B0FB6F894DEBF0FBECDBF09942A88F5
:100F8000398848885F846E847D848C849B84AA849D
:100F9000B984C884DF80EE80FD800C811B81AA812A
:100FA000B981CE0FD11D0FB6F894DEBF0FBECDBFF5
:100FB000ED010895A1E21A2EAA1BBB1BFD010DC075
:100FC000AA1FBB1FEE1FFF1FA217B307E407F507F9
:100FD00020F0A21BB30BE40BF50B661F771F881FD5
:100FE000991F1A9469F760957095809590959B016B
:100FF000AC01BD01CF010895A29FB001B39FC00114
:10100000A39F700D811D1124911DB29F700D811D34
:0A1010001124911D0895F894FFCFFC
:10101A00FF00FF00FF00FF00010000000000F202D5
:10102A00200073746172742061762066756E6B732A
:10103A006A6F6E202D2D2D2D2D2D2D2D2D2D2D2D23
:10104A002D2D2D2D2D2D2D2D2D2D2D2D0053746152
:10105A007274696E67205352414D20746573742E01
:10106A002E2E005772697465207068617365206559
:10107A0072726F723A206578745F72616D5B2534A3
:10108A00645D203D2025303258202873686F756CC6
:10109A00642062652025303258290A00526574722C
:1010AA00696576616C207068617365206572726F1C
:1010BA00723A206578745F72616D5B2534645D20D5
:1010CA003D2025303258202873686F756C64206281
:1010DA00652025303258290A005352414D20746543
:1010EA00737420636F6D706C6574656420776974BE
:1010FA0068200A253464206572726F727320696EE3
:10110A0020777269746520706861736520616E6406
:10111A00200A253464206572726F727320696E200A
:10112A0072657472696576616C2070686173650AAC
:10113A000A004A6F79737469636B20706F736974FC
:10114A00696F6E3A20583D25336425252C20593D78
:10115A0025336425250A00546F75636820706F7300
:10116A006974696F6E3A20583D25336425252C2011
:10117A00593D25336425250A004144432076616C94
:10118A007565733A2058206A6F79737469636B3D89
:10119A002533642C2059206A6F79737469636B3D17
:1011AA002533642C205820746F7563683D25336499
:1011BA002C205920746F7563683D2533640A004AF0
:1011CA006F79737469636B20646972656374696F9C
:1011DA006E3A204C4546543D25642C2052494748D6
:1011EA00543D25642C2055503D25642C20444F57EE
:0611FA004E3D25640A00D1
:00000001FF
