:100000000C9460030C947D030C947D030C947D038D
:100010000C947D030C947D030C947D030C947D0360
:100020000C947D030C947D030C947D030C947D0350
:100030000C947D030C947D030C947D030C947D0340
:100040000C947D030C947D030C947D030C947D0330
:100050000C947D030C947D030C947D030C947D0320
:100060000C947D030C947D030C947D030C947D0310
:1000700000000000005C00000C000C007C287C28C4
:1000800058DC68002410480028542840000C000068
:10009000007884008478000054385400107C1000EC
:1000A00080400000101010000040000060100C00A4
:1000B00038543800487C40004864580044542C00B0
:1000C0001C107C005C5424003854240064140C0080
:1000D00068542C0048543800004800008048000054
:1000E0001028440028282800442810000454080040
:1000F00038445C00781478007C5428003844280088
:100100007C4438007C5444007C140400384474005F
:100110007C107C00447C440020403C007C106C003F
:100120007C4040007C187C0078103C00384438004B
:100130007C1408003844B8007C146800485424003B
:10014000047C04007C407C003C603C007C307C00F3
:100150006C106C000C700C0064544C00007C44006B
:100160000C106000447C00000804080080808000BF
:1001700000040800304878007C48300030484800CF
:1001800030487C00306850001078140090A8780047
:100190007C08700050744000808074007C106800FF
:1001A000447C4000781078007808700030483000B7
:1001B000F82810003048F80078100800505828003F
:1001C000083C4800384078003840380078207800F3
:1001D0004830480098A0780048685800107884009B
:1001E000007C00008478100008040804000000006F
:1001F0000000005F00000007000700147F147F1458
:10020000242A7F2A1223130864623649552250009B
:1002100005030000001C2241000041221C00082AA6
:100220001C2A0808083E080800503000000808088A
:100230000808006060000020100804023E51494593
:100240003E00427F400042615149462141454B31C9
:100250001814127F1027454545393C4A4949300159
:10026000710905033649494936064949291E0036B0
:100270003600000056360000000814224114141401
:10028000141441221408000201510906324979412F
:100290003E7E1111117E7F494949363E414141223E
:1002A0007F4141221C7F494949417F090901013EA3
:1002B000414151327F0808087F00417F41002040C2
:1002C000413F017F081422417F404040407F0204AB
:1002D000027F7F0408107F3E4141413E7F090909AA
:1002E000063E4151215E7F09192946464949493157
:1002F00001017F01013F4040403F1F2040201F7F00
:100300002018207F631408146303047804036151E8
:1003100049454300007F4141020408102041417FCC
:100320000000040201020440404040400001020479
:100330000020545454787F4844443838444444207E
:10034000384444487F3854545418087E0901020840
:100350001454543C7F0804047800447D400020403D
:10036000443D00007F10284400417F40007C041879
:1003700004787C0804047838444444387C14141409
:1003800008081414187C7C080404084854545420A9
:10039000043F4440203C4040207C1C2040201C3C2A
:1003A0004030403C44281028440C5050503C446499
:1003B000544C44000836410000007F0000004136E4
:1003C000080002010302010000000000000000001C
:1003D000065F5F0600000000070700070700001423
:1003E0007F7F147F7F1400242E6B6B3A120000462F
:1003F0006630180C666200307A4F5D377A48000428
:1004000007030000000000001C3E634100000000E4
:1004100041633E1C000000082A3E1C1C3E2A0808BE
:10042000083E3E0808000000A0E060000000000850
:100430000808080808000000006060000000006074
:1004400030180C060301003E7F594D7F3E000042EC
:10045000427F7F40400000627359496F660000226E
:100460006349497F360000181C16137F7F10002750
:100470006745457D3900003C7E4B497930000003DB
:100480006371190F070000367F49497F3600000667
:100490004F49693F1E000000006C6C000000000026
:1004A000A0EC6C00000000081C3663410000001442
:1004B00014141414140000004163361C08000002D8
:1004C0000351590F0600003E7F415D5D1F1E007CF9
:1004D0007E13137E7C0000417F7F49497F36001CDC
:1004E0003E634141632200417F7F41637F1C0041A5
:1004F0007F7F495D416300417F7F491D0103001CEF
:100500003E6341517372007F7F08087F7F000000C7
:10051000417F7F41000000307040417F3F0100413A
:100520007F7F081C776300417F7F41406070007FC0
:100530007F060C067F7F007F7F060C187F7F001CE4
:100540003E6341633E1C00417F7F49090F06001E48
:100550003F21717F5E0000417F7F19396F46002681
:10056000674D597B32000003417F7F410300007FCC
:100570007F40407F7F00001F3F60603F1F00007F83
:100580007F3018307F7F0063771C081C776300077B
:100590004F78784F0700006773594D47637100002B
:1005A0007F7F41410000000103060C18306000000D
:1005B00041417F7F000000080C0603060C08008004
:1005C000808080808080800000030704000000207D
:1005D0007454543C784000413F7F44447C38003898
:1005E0007C44446C280000307848493F7F40003804
:1005F0007C54545C180000487E7F49030200009838
:10060000BCA4A4F87C0400417F7F08047C7800002F
:10061000447D7D4000000040C484FD7D0000004119
:100620007F7F10386C440000417F7F400000007CD9
:100630007C0C180C7C78007C7C04047C78000038EE
:100640007C44447C38000084FCF8A4243C18001846
:100650003C24A4F8FC8400447C78441C1800004826
:100660005C54547424000000043E7F442400003C89
:100670007C40403C7C40001C3C60603C1C00003CDA
:100680007C6030607C3C00446C3810386C44009CCA
:10069000BCA0A0FC7C00004C64745C4C64000008AE
:1006A000083E7741410000000000777700000041DC
:1006B00041773E0808000002030103020301000025
:1006C00011241FBECFEFD4E0DEBFCDBF13E0A0E00A
:1006D000B1E0EAE4F0E202C005900D92A63CB10759
:1006E000D9F723E0A6ECB3E001C01D92A43DB20708
:1006F000E1F70E947F030C9423100C9400008FE11B
:1007000090E00E94A2030E94C5030E94B3030E94CE
:10071000D7050E946E060E9433078FEF9FE2019774
:10072000F1F700C000000E94A7060E9461080E9425
:10073000840980E090E008955D9BFECF8CB980E055
:1007400090E0089590BD89B988E18AB98EE880BDAE
:1007500060E070E08CE993E00E94240B08955F9BB9
:10076000FECF8CB108958C9A109289001092880067
:1007700081E090E0909387008093860080E48093EE
:100780008B0089E080938A00089580E885BF80E22D
:1007900080BF0895CF92DF92EF92FF920F931F9345
:1007A000CF93DF9386E591E09F938F930E946E0B2A
:1007B00081E891E00E94840B0E94FE0AC82ED92E87
:1007C0000E94030B0F900F9000E010E0C0E0D0E01B
:1007D0000F2EF7E9EF2EF1E0FF2EF02D06C00F5F90
:1007E0001F4F011598E01907F9F00E94FE0A282F03
:1007F000392FF801F85E80834081481781F3332751
:100800003F932F931F924F931F930F93FF92EF925B
:100810000E946E0B21968DB79EB708960FB6F8947E
:100820009EBF0FBE8DBFDBCF8C2D9D2D0E94030B75
:10083000C12CD12C00E010E00F2EF0EDEF2EF1E0F6
:10084000FF2EF02D07C09FEFC91AD90AC11488E006
:10085000D806F9F00E94FE0A282F392FF601F85E1B
:100860008081821781F333273F932F931F928F93B9
:10087000DF92CF92FF92EF920E946E0B0F5F1F4F9D
:100880008DB79EB708960FB6F8949EBF0FBE8DBF6A
:10089000DACF1F930F93DF93CF938DE092E09F9376
:1008A0008F930E946E0B0F900F900F900F900F90F0
:1008B0000F90DF91CF911F910F91FF90EF90DF90FC
:1008C000CF900895E82FF92F8081681708F460838E
:1008D0008181861708F4618308956717B0F468175B
:1008E000B0F48717B0F4482F461B550B9A0144E625
:1008F000429FC001439F900D1124272F261B330BCD
:10090000B9010E949E0A862F089580E0089580E034
:10091000089584E60895CF93C62F682F86E091E06E
:100920000E9462046C2F84E091E00E946204CF91E7
:100930000895CF93C62F682F82E091E00E94620451
:100940006C2F80E091E00E946204CF910895909115
:10095000C803891B990B2091C703462F421B550BD7
:100960009A0161E08C3F5FEF95070CF060E071E069
:1009700005970CF470E081E0253031050CF480E03F
:1009800091E02C3F3F4F0CF090E008950F931F93A0
:10099000CF93DF93C82FD62F609106017091070186
:1009A0000E946D04082F60910401709105018D2F44
:1009B0000E946D04182F6D2F8C2F0E948B04802FA6
:1009C000912FDF91CF911F910F9108950F931F9356
:1009D000CF93DF93C82FD62F60910201709103014E
:1009E0000E946D04082F60910001709101018D2F0C
:1009F0000E946D04182F6D2F8C2F0E949904802F58
:100A0000912FDF91CF911F910F9108950E94C604FD
:100A10001F929F931F928F9386E692E09F938F93EE
:100A20000E946E0B0F900F900F900F900F900F90F1
:100A300008950E94E6041F929F931F928F938BE864
:100A400092E09F938F930E946E0B0F900F900F90E8
:100A50000F900F900F900895E82FF92FA0E0B4E1C8
:100A60001C928C9180838C9181838C9183838C9157
:100A700082830895FF920F931F93CF93DF93C82F24
:100A8000D92F8B811F928F938A811F928F93898197
:100A90001F928F9388811F928F938DEA92E09F938C
:100AA0008F930E946E0B698188810E94C604192F62
:100AB000698188810E94C6041F921F931F928F93A1
:100AC00086E692E09F938F930E946E0B6B818A81E2
:100AD0000E94E604192F6B818A810E94E6041F920E
:100AE0001F931F928F938BE892E09F938F930E94A6
:100AF0006E0B1981C881612F8C2F0E94A704F92EDB
:100B0000612F8C2F0E94A704082F612F8C2F0E9429
:100B1000A704D72F612F8C2F0E94A7041F92FF924A
:100B20001F920F931F92DF931F926F9383EF92E0B8
:100B30009F938F930E946E0B8DB79EB780960FB6D2
:100B4000F8949EBF0FBE8DBFDF91CF911F910F9183
:100B5000FF9008951F93CF93DF9381E090E00E9470
:100B60007E0683E00E94910681E48A95F1F700C039
:100B70008FEF0E949106182F83E08A95F1F700000D
:100B80008FEF0E949106D82F83E08A95F1F700003D
:100B90008FEF0E949106C82F8FEF9FEF0E947E0675
:100BA000612F7D2F8C2FDF91CF911F9108950E948F
:100BB0006E062FEF8FE791E0215080409040E1F7E3
:100BC00000C000C00E94AA0585E090E090930A0151
:100BD0008093090190930C0180930B011092C6033E
:100BE00081E0809308016093C8037093C703E6E037
:100BF000F1E060836183E4E0F1E070837183E2E01F
:100C0000F1E08FEF80831182E0E0F1E080831182D8
:100C10000895CF930E94AA05962F672FC82F892F7A
:100C20000E94A704C1110FC0811121C0911122C0DF
:100C300082E090E0611109C085E090E0711529F033
:100C400083E090E002C084E090E020910B013091BD
:100C50000C012817390789F090930C0180930B0140
:100C600081E08093C60385E090E0CF91089580E015
:100C700090E0EBCF81E090E0E8CF2091C6032330F5
:100C800028F42F5F2093C603233010F1209109012F
:100C900030910A0128173907F1F090930A018093E7
:100CA00009018530910551F08430910559F020916A
:100CB000080121110AC085E090E0D7CF21E0209300
:100CC0000801D3CF10920801D0CF10920801CDCFE8
:100CD00085E090E0CACF85E090E0C7CF88B3876118
:100CE00088BB87B38F6B87BBBE98C49AC19AC09AE2
:100CF000C29AC398709881E58DB90895282F392F2D
:100D000088B3836188BB2130310539F02230310549
:100D100031F0232B29F4C1980895C0980895C49800
:100D200008958FB9779BFECF8FB108950895CF9323
:100D3000C82FC39880E090E00E947E068C2F0E940E
:100D400091068FEF9FEF0E947E06CF9108958EEA65
:100D50000E94970681EA0E9497068AED0E949706F4
:100D600082E10E94970688EC0E94970688EA0E941A
:100D700097068FE30E94970685ED0E94970680E80C
:100D80000E94970681E80E94970680E50E949706D8
:100D900089ED0E94970681E20E94970680E20E94F8
:100DA000970682E00E9497068BED0E94970684E3E7
:100DB0000E94970684EA0E94970686EA0E94970698
:100DC0008FEA0E9497060895CF93C82FC39A80E0B8
:100DD00090E00E947E068C2F0E9491068FEF9FEF7D
:100DE0000E947E06CF910895883008F00895806BA8
:100DF0000E9497060895CF93C82F81154CF08F70ED
:100E00000E9497068C2F82958F7080610E949706B2
:100E1000CF910895CF93883010F0CF9108950E941C
:100E2000F40680E00E94FB06C0E880E00E94E40631
:100E3000C150C111FACFF1CFCF93C62F0E94F40653
:100E40008C2F0E94FB06CF910895CF93C0E08C2F8A
:100E50000E940A07CF5FC830D1F760E080E00E94AF
:100E60001C07CF910895C2988FEF9FE20197F1F789
:100E700000C00000C29A0E94250708951F93CF93D7
:100E8000DF9390EE980F9F3508F08FE3805290E04B
:100E9000EC01CC0FDD1FCC0FDD1FC80FD91FC451D3
:100EA000DE4F15E0FE0184910E94E4061150219668
:100EB0001111F8CF80E00E94E406DF91CF911F91DD
:100EC0000895CF93DF93C82FD92F8881811531F0F2
:100ED00021960E943E0789918111FBCFDF91CF912E
:100EE0000895089508958AE391E0909332018093E4
:100EF00031011092C9030895E0913101F09132015E
:100F0000309769F09481911551F08091C9038F5FFA
:100F1000891718F48093C90308951092C90308959E
:100F2000E0913101F0913201309771F084818115A7
:100F300059F09091C903911104C081508093C90365
:100F4000089591509093C9030895E0913101F09173
:100F500032013097E1F1A281B3811097C1F1209164
:100F6000C9033481231798F530E0A901440F551FB8
:100F7000240F351F220F331FA20FB31F12968D911E
:100F80009C9113978130910561F082309105A9F011
:100F9000892BE9F41496ED91FC913097C1F00995F5
:100FA000089514968D919C91009789F09093320149
:100FB000809331011092C90308958581968100972D
:100FC00031F090933201809331011092C90308955A
:100FD0000E94B3030E94D7050E9433070E94A70610
:100FE0000E94730708950F931F93CF93DF930E947E
:100FF000250760E080E00E941C07E0913101F0913C
:101000003201808191810E946107E0913101F0916C
:1010100032018481811569F100E010E0C0E01AC05E
:101020008EE593E00E946107E0913101F091320179
:101030000280F381E02DE00FF11F808191810E94F9
:1010400061070A5F1F4FE0913101F0913201848105
:10105000C81778F4DC2FCF5F60E08C2F0E941C074C
:101060008091C9038D17E1F281E693E00E94610748
:10107000DBCFDF91CF911F910F9108950E94F3076D
:101080000AC00E9490070E94F3078FEF9FE201972A
:10109000F1F700C000000E940906282F392F2530E3
:1010A000310599F32130310531F02430310531F02B
:1010B000232B49F7E6CF0E947C07E5CF0E94A507C6
:1010C000E2CF1F93CF93DF9300D000D000D00F92D8
:1010D000CDB7DEB70E946E0689EF90E00197F1F779
:1010E00000C000000E948C0A83E09CEA9A838983F6
:1010F00083E08B8343E0BE016F5F7F4F88E20E94F5
:101100001E0A84E68C8380E68D8341E0BE016C5F1D
:101110007F4F0E941E0A41E0BE016B5F7F4F80E758
:101120000E941E0A86E48E8341E0BE016A5F7F4F03
:101130008FE00E941E0A14E641E0BE01695F7F4F06
:101140008EE00E94F1098F81807E803459F089EF12
:1011500090E00197F1F700C0000011501111ECCFA1
:1011600080E001C081E027960FB6F894DEBF0FBE85
:10117000CDBFDF91CF911F910895CF92DF92FF9263
:101180000F931F93CF93DF93CDB7DEB72E970FB694
:10119000F894DEBF0FBECDBF082F192F80E00115D8
:1011A000110509F448C0F8018081918181159840AA
:1011B00008F040C0F8018281893010F080E03BC027
:1011C00041E0BE016F5F7F4F80E40E94F109898199
:1011D00083FF02C080E02FC06E01F2E0CF0ED11C71
:1011E0008DE0F60111928A95E9F7F80180819181ED
:1011F0009C013695279536952795369527952A8310
:101200008295880F807E8B83F280FE824F2D50E086
:10121000B8016D5F7F4FCE0107960E941B0B45E022
:101220004F0DB60181E40E941E0A82E00E944A0A24
:1012300081E001C080E02E960FB6F894DEBF0FBEAD
:10124000CDBFDF91CF911F910F91FF90DF90CF9095
:1012500008950F931F93CF93DF93CDB7DEB72E97EB
:101260000FB6F894DEBF0FBECDBF082F192F80E058
:101270000115110559F041E0BE016F5F7F4F8CE20F
:101280000E94F109898180FD0CC080E02E960FB686
:10129000F894DEBF0FBECDBFDF91CF911F910F91AC
:1012A00008954DE0BE016E5F7F4F81E60E94F10917
:1012B00040E061E08CE20E946E0A8B81982F987169
:1012C000911120C04E814F70493010F080E0DECF88
:1012D0002A8130E0220F331F220F331F220F331FCA
:1012E000829586958770282BF8013183208342836D
:1012F00050E0BE01695F7F4FC80103960E941B0B3F
:1013000081E0C4CF80E0C2CF1F93CF93DF93CDB7EE
:10131000DEB766970FB6F894DEBF0FBECDBF0E9452
:101320006108811521F18BE0EBE4F1E0DE0111961B
:1013300001900D928A95E1F7CE0101960E94BD08B9
:1013400014E68115C9F0CE010C960E94290981117D
:1013500018C089EF90E00197F1F700C0000011502C
:101360001111F1CF82EB93E00E94840B19C088E841
:1013700093E00E94840B14C082EA93E00E94840BE5
:101380000FC02C853D8589819A812817390791F0F6
:1013900085E793E09F938F930E946E0B0F900F90C1
:1013A00066960FB6F894DEBF0FBECDBFDF91CF912A
:1013B0001F9108954B818E85841719F085E793E07E
:1013C000E9CF50E0BE016C5F7F4FCE010F960E94C7
:1013D0000E0B892B19F085E793E0DCCF84E693E0D0
:1013E000D9CFFF920F931F93CF93DF93C82F062F70
:1013F000172FF42E0115110511F0411106C0DF91D0
:10140000CF911F910F91FF90089582E090E00E948C
:101410007E0683E00E9491068C2F0E949106E801CF
:101420000F0D111D8FEF0E9491068993C017D107F0
:10143000C9F78FEF9FEF0E947E06E1CFFF920F93D7
:101440001F93CF93DF93C82F062F172FF42E01156C
:10145000110511F0411106C0DF91CF911F910F913D
:10146000FF90089582E090E00E947E0682E00E9454
:1014700091068C2F0E949106E8010F0D111D899194
:101480000E949106C017D107D1F78FEF9FEF0E94FE
:101490007E06E2CFCF93C82F82E090E00E947E06C6
:1014A0008C2F877080680E9491068FEF9FEF0E94BB
:1014B0007E06CF910895CF9382E090E00E947E0651
:1014C00080EA0E9491068FEF0E949106C82F8FEF4D
:1014D0009FEF0E947E068C2FCF9108951F93CF938C
:1014E000DF93182FD62FC42F82E090E00E947E0653
:1014F00085E00E949106812F0E9491068D2F0E9407
:1015000091068C2F0E9491068FEF9FEF0E947E061E
:10151000DF91CF911F91089582E090E00E947E06B6
:1015200080EC0E9491068FEF9FEF0E947E0689EF6C
:1015300090E00197F1F700C000000895AA1BBB1BC3
:1015400051E107C0AA1FBB1FA617B70710F0A61BC3
:10155000B70B881F991F5A95A9F780959095BC01E4
:10156000CD0108958F929F92AF92BF92CF92DF925A
:10157000EF92FF92CF93DF93EC01688179818A81AA
:101580009B81611571058105910521F464E279ED76
:101590008BE597E02DE133EF41E050E00E94890FA9
:1015A00049015A019B01AC01A7EAB1E40E94A80FCE
:1015B0006B017C01ACEEB4EFA50194010E94B60F63
:1015C000DC01CB018C0D9D1DAE1DBF1DB7FF03C0FF
:1015D0000197A109B04888839983AA83BB839F7729
:1015E000DF91CF91FF90EF90DF90CF90BF90AF90C1
:1015F0009F908F9008950E94B20A089581E491E02F
:101600000E94B20A0895A0E0B0E080934101909357
:101610004201A0934301B09344010895FB01DC0112
:1016200004C08D910190801921F441505040C8F7B9
:10163000881B990B0895FB01DC0102C001900D92FB
:1016400041505040D8F708950F931F93CF93DF93E5
:10165000EC018B01892B51F4672B41F4E0E0F0E0C1
:10166000CF01DF91CF911F910F9108956EE070E04F
:1016700081E090E00E949B0DFC01892B79F380E8CA
:1016800083830115110571F01387028781E8838335
:101690008091CA039091CB03892B21F4F093CB0363
:1016A000E093CA032097E1F2D187C08783818260EB
:1016B00083838091CC039091CD03892B89F6F0939D
:1016C000CD03E093CC038091CE039091CF03892B7F
:1016D00039F6F093CF03E093CE03C2CFA0E0B0E0A1
:1016E000E4E7FBE00C94CB0FAE014B5F5F4FFA01D8
:1016F00061917191AF018091CC039091CD030E94D3
:10170000B00BE2E00C94E70F0F931F93CF93DF939E
:10171000E091CC03F091CD03238100E010E021FDA6
:101720000EC00FEF1FEFC801DF91CF911F910F91F6
:1017300008950995892B11F00FEF1FEFCE01EC01F1
:1017400089916091CC037091CD03DB011896ED91E6
:10175000FC918111EECF8AE00995892B21F3E1CF2D
:10176000ABE0B0E0E6EBFBE00C94BE0F6C017B015C
:101770008A01FC0117821682838181FFD9C19AE018
:10178000592EF6012381F70123FD859123FF8191D5
:101790007F01811509F41FC1853239F423FD95912C
:1017A00023FF91917F01953229F4B60190E00E94C8
:1017B000FB0EE7CF30E0912C612C712CF0E27F160C
:1017C00040F59B32D9F058F49032D1F09332F1F0D9
:1017D0009E3299F576FCFFC0689476F806C09D327B
:1017E00091F09033C1F4689470F8F70123FD95915E
:1017F00023FF91917F019111E1CF29C0689471F885
:10180000689472F8F2CF689473F8EFCF689474F824
:10181000ECCF77FC1CC080ED890F8A30C8F676FECD
:1018200005C0959C800D1124982EDFCF659C800DFE
:101830001124682E689475F8D8CF9C3619F46894F2
:1018400077F8D3CF9C3409F44BC0983671F2892FC6
:101850008F7D8554833008F445C0933609F466C003
:10186000933709F469C0933509F475C0943619F0BB
:10187000993609F09FC0F80177FE95C0619171918A
:10188000819191918F01272D2F76822E97FF09C08C
:1018900090958095709561957F4F8F4F9F4F68947D
:1018A00087F82AE030E0AE014F5F5F4F5A010E9497
:1018B0002B0F8A19A82E86FEC4C0882D8E7FA914EE
:1018C00008F0BEC084FE11C182FC05C1F82DFE7E69
:1018D0008F2EB92C882D8678811509F4BFC000C1E0
:1018E00031E083CF3115F9F0085F1F4F8FE3898313
:1018F00088248394912CAE014F5F5F4F5A01E89486
:1019000077F873FC03C086149104B0F1811491043C
:10191000D1F5611409F435CFB60180E290E00E9460
:10192000FB0E6A94F6CF0C5F1F4FE0CFF801808169
:1019300089830E5F1F4FDCCFF801A190B1908F011A
:10194000692D70E076FC02C06FEF7FEFC5010E9449
:10195000F00E4C01D4CFF801A190B1908F01692D08
:1019600070E076FC02C06FEF7FEFC5010E94DE0ED3
:101970004C01689477F8C5CFB60180E290E00E94F0
:10198000FB0E6A94C0CFF50177FC859177FE8191BB
:101990005F01B60190E00E94FB0E61106A94F1E0D5
:1019A0008F1A9108B3CF61917191072E000C880BAB
:1019B000990B68CF872CE89484F82AE030E09537BB
:1019C00039F1572D597F852E903799F058F4983575
:1019D000A9F09F36D9F0F601868197812B96EFE02A
:1019E0000C94DA0F9837B9F774FC05C020E130E0A9
:1019F0000FC0689484F8689482F8F8CF74FE03C02E
:101A0000872D8660882E20E132E002C028E030E099
:101A1000F80187FE10C061917191819191918F01C0
:101A2000FE0131965F01AF010E942B0F8A19A82E8B
:101A3000E89487F840CF6191719180E090E0EFCF1A
:101A4000882EBA2C84FE46CFFE01EA0DF11D80815E
:101A5000803309F043C0282D297E822E83FC0EC0DE
:101A600080FE4FC09A2CB61418F4960C9B18B62C16
:101A7000862D8B196B1408F480E0B80EB61408F0AC
:101A800042C06B1884FE41C0B60180E390E00E9422
:101A9000FB0E82FE09C088E590E081FC02C088E769
:101AA00090E0B6010E94FB0EA914D8F1AA94B12CC3
:101AB0004FEFA41AB40ACE0101964C01A80EB91E2C
:101AC000F50182915F01B60190E00E94FB0E8A143D
:101AD0009B04B1F71ECFB92C882EB6CF82FC02C072
:101AE000B394BCCFB394B394B9CFB92C882EF2CEB3
:101AF000B60180E290E00E94FB0E73947614C0F36E
:101B0000B7CF7B2CFBCF612CBDCF882D867881157C
:101B100059F280E281FC8BE287FC8DE2B60190E015
:101B2000C1CFB60180E390E00E94FB0E9A94BCCF37
:101B30008FEF9FEF53CF0F931F93CF93DF93869F2A
:101B40008001879F100D969F100D1124C8010E94DF
:101B5000B70DEC01009729F0A80160E070E00E9449
:101B6000E90ECE01DF91CF911F910F9108950F9350
:101B70001F93CF93DF939C01029710F422E030E093
:101B8000E091D003F091D10380E090E0A0E0B0E0DC
:101B9000309791F4009709F448C0821B930B84306E
:101BA0009105D0F58A819B816115710581F1FB0159
:101BB00093838283FE0111C0408151810281138190
:101BC00042175307D8F04217530799F4109761F062
:101BD00012960C93129713961C933296CF01DF91B5
:101BE000CF911F910F9108950093D0031093D103CB
:101BF000F4CF009751F04817590738F0AC01DB01DA
:101C0000CA01BD01DF01F801C3CFEF01F9CF909305
:101C1000D1038093D003CECFFE01E80FF91F2193AB
:101C20003193029799838883D9CF4091D203509101
:101C3000D3034115510541F44091470150914801AA
:101C40005093D3034093D203809145019091460174
:101C5000009741F48DB79EB76091490170914A0198
:101C6000861B970B4817590708F0B8CF841B950BB4
:101C70008217930708F4B2CFB9016E5F7F4F8617C2
:101C8000970708F4ABCF640F751F7093D30360936D
:101C9000D203FA0121933193A1CFCF93DF939C011B
:101CA0000097E9F0FC01329713821282C091D003B1
:101CB000D091D103DE0180E090E02097A1F48081F3
:101CC0009181280F391F8091D2039091D3038217FD
:101CD000930709F068C0F093D303E093D203DF9138
:101CE000CF910895DA01AE17BF0708F042C01296EF
:101CF0004D915C911397CD014115510599F7DC0188
:101D00001396FC93EE9312974D915D919D01240FD4
:101D1000351FE217F30781F4208131812E5F3F4F99
:101D2000240F351FDC0111963C932E9322813381C1
:101D300013963C932E931297E0E0F0E08A819B810A
:101D40000097B1F5DE018D919D918A0F9B1F209127
:101D5000D2033091D3032817390709F6309759F584
:101D60001092D1031092D003D093D303C093D20327
:101D7000B6CFB383A28340815181240F351FA217B0
:101D8000B30771F44E5F5F4F2D913C911197240F73
:101D9000351F3183208312962D913C91338322830A
:101DA000009709F0ACCFF093D103E093D00397CF25
:101DB000FE01EC01C3CF13821282D6CFFC01059045
:101DC000615070400110D8F7809590958E0F9F1F3D
:101DD0000895DC0101C06D9341505040E0F7089533
:101DE000FC016150704001900110D8F780959095EA
:101DF0008E0F9F1F08950F931F93CF93DF93182F7C
:101E0000092FEB018B8181FD09C01FEF0FEF812F9F
:101E1000902FDF91CF911F910F91089582FF14C0F1
:101E20002E813F818C819D81281739073CF4E88100
:101E3000F981CF0101969983888310838E819F81D8
:101E400001969F838E83E3CFE885F985812F0995DD
:101E5000892BA1F3DACFFA01AA27283051F12031DA
:101E600081F1E8946F936E7F6E5F7F4F8F4F9F4F2E
:101E7000AF4FB1E03ED0B4E03CD0670F781F891F70
:101E80009A1FA11D680F791F8A1F911DA11D6A0F3E
:101E9000711D811D911DA11D20D009F468943F91F1
:101EA0002AE0269F11243019305D3193DEF6CF01F0
:101EB0000895462F4770405D4193B3E00FD0C9F7B6
:101EC000F6CF462F4F70405D4A3318F0495D31FD23
:101ED0004052419302D0A9F7EACFB4E0A695979576
:101EE000879577956795BA95C9F70097610571054C
:101EF00008959B01AC010A2E069457954795379596
:101F00002795BA95C9F7620F731F841F951FA01DEF
:101F10000895052E97FB1EF400940E94A00F57FD14
:101F200007D00E94F20F07FC03D04EF40C94A00FD0
:101F300050954095309521953F4F4F4F5F4F0895F5
:101F400090958095709561957F4F8F4F9F4F089525
:101F50000E941410A59F900DB49F900DA49F800D1A
:101F6000911D11240895B7FF0C94A80F0E94A80F8B
:101F7000821B930B08952F923F924F925F926F9224
:101F80007F928F929F92AF92BF92CF92DF92EF9209
:101F9000FF920F931F93CF93DF93CDB7DEB7CA1B8A
:101FA000DB0B0FB6F894DEBF0FBECDBF09942A88B5
:101FB000398848885F846E847D848C849B84AA845D
:101FC000B984C884DF80EE80FD800C811B81AA81EA
:101FD000B981CE0FD11D0FB6F894DEBF0FBECDBFB5
:101FE000ED010895A1E21A2EAA1BBB1BFD010DC035
:101FF000AA1FBB1FEE1FFF1FA217B307E407F507B9
:1020000020F0A21BB30BE40BF50B661F771F881F94
:10201000991F1A9469F760957095809590959B012A
:10202000AC01BD01CF010895A29FB001B39FC001D3
:10203000A39F700D811D1124911DB29F700D811DF4
:0A2040001124911D0895F894FFCFBC
:10204A00FF00FF00FF00FF0001050005002A030052
:10205A000000003503010033014003000000004581
:10206A0003000071074A03000072074F03020000D1
:10207A00003A0135031F01033A0154030D0103001D
:10208A0000010000000000D4032000210302AABBC3
:10209A00000000000000737461727420617620668B
:1020AA00756E6B736A6F6E202D2D2D2D2D2D2D2D96
:1020BA002D2D2D2D2D2D2D2D2D2D2D2D2D2D2D2D46
:1020CA00005374617274696E67205352414D2074D3
:1020DA006573742E2E2E00577269746520706861BC
:1020EA007365206572726F723A206578745F7261E7
:1020FA006D5B2534645D203D2025303258202873DD
:10210A00686F756C642062652025303258290A0090
:10211A0052657472696576616C20706861736520B6
:10212A006572726F723A206578745F72616D5B25B1
:10213A0034645D203D2025303258202873686F753D
:10214A006C642062652025303258290A00535241B6
:10215A004D207465737420636F6D706C657465646B
:10216A002077697468200A253464206572726F7258
:10217A007320696E2077726974652070686173656F
:10218A0020616E64200A253464206572726F72734E
:10219A0020696E2072657472696576616C20706858
:1021AA006173650A0A004A6F79737469636B2070F8
:1021BA006F736974696F6E3A20583D25336425251B
:1021CA002C20593D25336425250A00546F75636810
:1021DA0020706F736974696F6E3A20583D253364B5
:1021EA0025252C20593D25336425250A00414443E1
:1021FA002076616C7565733A2058206A6F7973741A
:10220A0069636B3D2533642C2059206A6F79737496
:10221A0069636B3D2533642C205820746F7563689D
:10222A003D2533642C205920746F7563683D25332E
:10223A00640A004A6F79737469636B206469726512
:10224A006374696F6E3A204C4546543D25642C20D0
:10225A0052494748543D25642C2055503D25642C4D
:10226A0020444F574E3D25640A005374617274200E
:10227A0047616D6500446966666963756C747900C7
:10228A004578697400456173790048617264004257
:10229A0061636B004D61696E204D656E75003E206D
:1022AA000020200043414E207465737420706173CE
:1022BA007365640A0043414E2074657374206D6926
:1022CA00736D617463680A0043414E20696E6974D4
:1022DA0069616C697A6174696F6E206661696C659F
:1022EA00640043414E2073656E64206661696C65C3
:1022FA00640043414E20726563656976652074699E
:06230A006D656F757400A3
:00000001FF
